:0400000080EF00F09D
:08000800046ED8CF05F0E0CF33
:1000100006F00001E9CF0CF0EACF07F0E1CF08F0DD
:10002000E2CF09F0D9CF0AF0DACF0BF0F3CF12F01C
:10003000F4CF13F0FACF14F000C00EF001C00FF0AF
:1000400002C010F003C011F0F2AA2AEF00F0F2B4DF
:1000500051EF00F09DAA30EF00F09EBA59EF00F08A
:100060000EC000F00FC001F010C002F011C003F08C
:100070000CC0E9FF07C0EAFF078E08C0E1FF09C016
:10008000E2FF0AC0D9FF0BC0DAFF12C0F3FF13C0B2
:10009000F4FF14C0FAFF045006C0E0FF05C0D8FF0B
:1000A000100096908D70D76A050ED66EF29430EFE0
:1000B00000F09E9A30EF00F00A496E677265736136
:1000C00020756E6120636164656E61207920756EB4
:1000D000206E756D65726F3A200A00000900F552B6
:1000E0000DE0F6CF26F0F7CF27F0F5509EA8FED70B
:1000F000AD6E26C0F6FF27C0F7FFF0D7A4EF00F0E3
:10010000F86AD09E078EB886A00EAF6E010EB06E54
:10011000A60EAC6E900EAB6EC150C00B0F09C16E37
:10012000070EB46E166A176A1C6AC60ED56ED76AB9
:10013000050ED66EF28AC00EF2129D8AF212B80E29
:10014000F66E000EF76ECAD79D8AC00EF212FCD76B
:020150000300AA
:020000040030CA
:0E0000000002181E000581000FC00FE00F4027
:00000001FF
;PIC18F4620
;CRC=BB17  CREATED="08-may.-19 13:56"
